:0C0000000C941B010C9400020C94C10134
:140054005904002020202020202020203030303030202020CB
:14006800202020202020202020202020202020904040404014
:14007C0040404040404040404040400C0C0C0C0C0C0C0C0C44
:140090000C4040404040404009090909090901010101010154
:1400A4000101010101010101010101010101404040404040BA
:1400B8000A0A0A0A0A0A0202020202020202020202020202DC
:1400CC000202020202024040404020000000000000000000F4
:1400E00000000000000000000000000000000000000000000C
:1400F4000000000000000000000000000000000000000000F8
:140108000000000000000000000000000000000000000000E3
:14011C000000000000000000000000000000000000000000CF
:140130000000000000000000000000000000000000000000BB
:1401440000000000000000000000000000000000000000693E
:14015800645F636F64653D25640073697A656F66286C6F6E6E
:14016C0067293D257800000000003C696E7465676572206F5C
:140180006E6C79207072696E74662C2073656C656374205029
:14019400726F6A6563742D3E4F7074696F6E732D3E546172E7
:1401A8006765742C224650207072696E74662220746F2070B7
:1401BC0072696E7420666C6F6174696E6720706F696E742094
:1401D0006E756D626572733E00286E756C6C207074722070F8
:1401E40061737365642900303132333435363738396162639B
:1401F8006465666768696A6B6C6D6E6F707172737475767765
:14020C0078797A003031323334353637383961626364656611
:140220006768696A6B6C6D6E6F707172737475767778797A00
:0102340000C9
:14023600CFE5D4E0CDBFDEBFC051D0400AEA08830024EEE38E
:14024A00F1E011E0E935F10711F00192FBCF0083E7E5F1E04A
:14025E00A0E6B0E012E0E533F10721F0C89531960D92F9CFD8
:140272000E944B01FFCF22242AB882E08BB986E080BD87E6DE
:1402860089B920BC88E18AB908958FEF87BB08952C970E943B
:14029A0048010E943C010E94B3018FEF88BB59C004EF11E014
:1402AE000E94250240E050E060E070E040907D0050907E00E8
:1402C20020907B0030907C00241635064606570689F124E025
:1402D60030E00BE610E00E9433054EEF5FEF6FEF71E040903F
:1402EA007D0050907E0020907B0030907C00242235224622B9
:1402FE00572230927C0020927B0050927E0040927D0056946F
:1403120047943794279430927C0020927B0050927E004092D9
:140326007D0048825982910100E610E00E9433054AEE5FE3E5
:14033A0065E170E040907D0050907E0020907B0030907C0007
:14034E00241635064606570611F4222428BAA6CF002711277C
:140362002C96089581B3837F81BB82B38C6082BB78948BB70A
:14037600806C8BBF85B78A6085BF08952A923A924A925A92E6
:14038A000A931A932A933A93EA932FB62A920E9437044090C0
:14039E007D0050907E0020907B0030907C00220C331C441C2C
:1403B200551C30927C0020927B0050927E0040927D0041E08B
:1403C60050E060E070E0242A352A462A572A30927C002092D5
:1403DA007B0050927E0040927D000E94280429902FBEE991F7
:1403EE003991299119910991599049903990299018950A92A6
:140402001A922A923A924A925A920FB60A9240907D0050905C
:140416007E0020907B0030907C00220C331C441C551C3092DD
:14042A007C0020927B0050927E0040927D0009900FBE599017
:14043E004990399029901990099018950E943704442755279C
:140452000AC0662777276F5F7F4F6437E4E07E07D4F34F5FAC
:140466005F4F401751079CF30E94280408950E94E9030E94FB
:14047A0031042A97002411241F820E828FC1EE89FF8980819E
:14048E00853259F00081EC89FD890E9450048E819F81019622
:1404A2009F838E837AC1EE24FF244EE351E060E28E899F89C0
:1404B60001969F8B8E8BE82FF92F208033243D822C82822D06
:1404CA00932D8835E0E09E0709F48BC088E582159305A4F0C4
:1404DE008C819D818534E0E09E0709F453C18534E0E09E0792
:1404F2000CF443C08C819D818335E0E09E0709F4E2C03BC011
:140506008C819D818F36E0E09E0709F46CC08FE690E02C80D2
:14051A003D8082159305DCF08C819D818336E0E09E0709F4CF
:14052E00B6C08436E0E09E0709F42EC08536E0E09E0709F41C
:1405420027C18636E0E09E0709F422C18936E0E09E0701F1A6
:1405560012C08C819D818337E0E09E0709F4E0C08537E0E05C
:14056A009E0709F43EC08837E0E09E0709F439C000C0EE898C
:14057E00FF890081EC89FD890E9450048E819F8101969F8387
:140592008E8303C1888D998D0296998F888FE82FF92F329766
:1405A6002080318039862886822D932D8030E0E09E0774F497
:1405BA008E2D9F2D8860E82EF92E6DE2822D932D8095909589
:1405CE008F5F9F4F998788878AE090E09983888328853985A2
:1405E200042F152F0E94790453C0888D998D0296998F888F4A
:1405F600E82FF92F32972080318039862886EE89FF8980812B
:14060A00853759F48AE090E099838883222D332D042F152FAC
:14061E000E94D20437C0EE89FF8980818F3659F488E090E06F
:140632009983888328853985042F152F0E94D20427C080E1EB
:1406460090E09983888328853985042F152F0E94D204EE8938
:14065A00FF8980818835C1F48EE391E0C82ED92E0EC0EC2DCB
:14066E00FD2D008111270E941C05EC2DFD2D00838C2D9D2D89
:140682000196C82ED92EEC2DFD2D2080222069F78EE391E069
:14069600C82ED92E57C0888D998D0296998F888FE82FF92FEB
:1406AA003297208031802A82022DEC89FD890E9450048E8147
:1406BE009F8101969F838E836AC0888D998D0296998F888F02
:1406D200E82FF92F3297A080B1806D32E9F40DE2EC89FD8955
:1406E6000E9450048E819F8101969F838E8312C0EA2DFB2D00
:1406FA00C895002DEC89FD890E9450048E819F8101969F8389
:14070E008E838A2D9B2D0196A82EB92EEA2DFB2DC895002037
:1407220049F73BC0888D998D0296998F888FE82FF92F32976E
:14073600C080D180CC2031F4DD2021F482EE90E0C82ED92E1E
:14074A006D32E1F40DE2EC89FD890E9450048E819F81019681
:14075E009F838E8311C0EC2DFD2D0081EC89FD890E945004CE
:140772008E819F8101969F838E838C2D9D2D0196C82ED92E63
:14078600EC2DFD2D2080222051F705C08FE790E0C82ED92E4A
:14079A00D7CF8E899F8901969F8B8E8BEE89FF8920802220AB
:1407AE0009F06BCE0E811F812A960E942E0424960895A02F1C
:1407C200B12FE22FF32F01900D920020E1F708953A932A93C1
:1407D6001A930A9308956894DA92D12E04C0E894DA92D12E16
:1407EA00D32617FF04C0109500950F5F1F4F37FF04C0309553
:1407FE0020952F5F3F4F0E940F04D7FE04C0109500950F5F20
:140812001F4FD9900895689401C0E894EA92FA928A93EE24EE
:14082600FF2480E1000F111FEE1CFF1CE216F30618F0E21AE1
:14083A00F30A03958A95A1F716F40E2D1F2D8991F990E990B1
:14084E000895E2E00C943D04E8E00C943D04EE270C943D04B7
:14086200FA92EA92DA92CA92BA92AA927A936A935A934A9356
:140876000895E1E049915991E0FD089569917991E1FD089553
:14088A00A990B990E2FD0895C990D990E3FD0895E990F9901B
:14089E0008950A92C8950A923196C895F02DE9910990099423
:1408B2000E943904402F2090570130905801222011F4332029
:1408C60021F04A3011F40DE0F1DF5D9BFECF4CB9042F11279C
:1408DA000E943C040895822F932F01968E7F800F911F082FFE
:1408EE00192F08950E943104C22ED32E402F512FA297ACA4D1
:14090200BDA48C2D9D2D8030E0E09E0744F461E08095909535
:140916008F5F9F4FC82ED92E01C06627222429A28C2F9D2F0E
:14092A008196E82EF92E8E2D9F2D0197282E392EE82EF92E4C
:14093E002A2D3B2D0C2D1D2D0E94EE03E02FF12F84EF90E0BE
:14095200E80FF91F4080E22DF32D40822A2D3B2D0C2D1D2D8F
:140966000E94F203C02ED12ECC20F9F6DD20E9F6662359F070
:14097A008E2D9F2D0197282E392EE82EF92E8DE2E22DF32DB2
:14098E0080832E2D3F2D042F152F0E94E003A2960E942E0483
:1409A20008950E943304A22EB32EC02ED12EA2976AA57BA5C5
:1409B600222429A24C2F5D2F4F5D5F4F842F952F0197282E56
:1409CA00392E482F592F262F372F0A2D1B2D0E940C04E02FB8
:1409DE00F12F89E191E0E80FF91F4080E22DF32D4082262FF5
:1409F200372F0A2D1B2D0E940E04A02EB12EAA20F9F6BB2017
:140A0600E9F6242F352F0C2D1D2D0E94E003A2960E942B0435
:140A1A00089587E590E0202E312E280E391EE22DF32DC89589
:140A2E00002D11270270107008950E943904402F512F042FBF
:140A4200152F0E940E050030010739F0042F152F0156104028
:140A56000F5B1F4F02C0042F152F0E943C0408950E94E9036E
:140A6A000E943904229722E030E00C2F1D2F0C5F1F4F0E94CC
:140A7E007004402F512F598348832C813D8104E510E00E9474
:100A92003A02402F512F22960E943C042496089538
:00000001FF
