:040000000C9432002A
:0F005400756172742073656E642E2E2E0A000083
:14006400CFE5D4E0CDBFDEBFC051D0400AEA08830024EFE65E
:14007800F0E010E0EF36F10711F00192FBCF0083E4E5F0E01D
:14008C00A0E6B0E010E0E336F10721F0C89531960D92F9CFAD
:1400A0000E947D00FFCF22242AB882E08BB986E080BD87E681
:1400B40089B920BC88E18AB908955D9BFECF0CB908955F9BB0
:1400C800FECF0CB108950E94BF00A80105C0FA010081F1DFE2
:1400DC004F5F5F4FFA0120802220B9F70E94C20008958FEFA8
:1400F00087BB82BB222421BA08950E9477000E9453000E940F
:14010400950000E610E00E9467008FEF88BB07C020906E00CD
:14011800222011F0222428BA7894F8CF00271127089580E831
:14012C008FBF8BBF88E085BF089581E080936E0008950E94BD
:14014000BD00442755270AC0662777276F5F7F4F6437E4E017
:140154007E07D4F34F5F5F4F401751079CF30E94B4000895BE
:14016800E2E00C94C300FA92EA92DA92CA92BA92AA927A93F9
:14017C006A935A934A930895E1E049915991E0FD0895699112
:140190007991E1FD0895A990B990E2FD0895C990D990E3FD36
:0801A4000895E990F990089517
:00000001FF
