:0C0000000C9413010C94AD010C948A01C7
:14005400FA030020202020202020202030303030302020202B
:14006800202020202020202020202020202020904040404014
:14007C0040404040404040404040400C0C0C0C0C0C0C0C0C44
:140090000C4040404040404009090909090901010101010154
:1400A4000101010101010101010101010101404040404040BA
:1400B8000A0A0A0A0A0A0202020202020202020202020202DC
:1400CC000202020202024040404020000000000000000000F4
:1400E00000000000000000000000000000000000000000000C
:1400F4000000000000000000000000000000000000000000F8
:140108000000000000000000000000000000000000000000E3
:14011C000000000000000000000000000000000000000000CF
:140130000000000000000000000000000000000000000000BB
:1401440000000000000000000000000000000000000000693E
:14015800645F636F64653D256400000000003C696E7465671C
:14016C006572206F6E6C79207072696E74662C2073656C651E
:1401800063742050726F6A6563742D3E4F7074696F6E732D19
:140194003E5461726765742C224650207072696E74662220D9
:1401A800746F207072696E7420666C6F6174696E6720706FA0
:1401BC00696E74206E756D626572733E00286E756C6C207017
:1401D000747220706173736564290030313233343536373898
:1401E400396162636465666768696A6B6C6D6E6F70717273F0
:1401F8007475767778797A00303132333435363738396162E2
:14020C00636465666768696A6B6C6D6E6F7071727374757664
:050220007778797A00F7
:14022600CFE5D4E0CDBFDEBFC051D0400AEA08830024EEE29F
:14023A00F1E011E0E934F10711F00192FBCF0083E7E5F1E05B
:14024E00A0E6B0E012E0E532F10721F0C89531960D92F9CFE9
:1402620010D0FFCF22242AB882E08BB986E080BD87E689B9BA
:1402760020BC88E18AB908958FEF87BB08952297FBDFEEDF92
:14028A0036D08ED08FEF88BB2DC004EF11E075D040E050E0D5
:14029E0060E070E00E94DA040E943305B1F04EEF5FEF6FEFD8
:1402B20071E024223522462257220E94CB0456944794379468
:1402C60027940E94CB0448825982910100E610E03DD34AEEA3
:1402DA005FE365E170E00E94DA040E94330511F4222428BAB1
:1402EE00D2CF002711272296089581B3837F81BB82B38C6014
:1403020082BB78948BB7806C8BBF85B78A6085BF08950E947D
:140316002E058A929A92EA932FB62A922ED20E94DA04220C8C
:14032A00331C441C551C0E94CB0441E050E060E070E0242AFF
:14033E00352A462A572A0E94CB040FD229902FBEE9919990C0
:1403520089900E94290518950A921A920E942E050FB60A9283
:140366000E94DA04220C331C441C551C0E94CB0409900FBEDE
:14037A000E942905199009901895FDD1442755270AC06627A4
:14038E0077276F5F7F4F6437E4E07E07D4F34F5F5F4F4017C3
:1403A20051079CF3E0D1089582B3806382BB81B3806381BB6A
:1403B600089582B38F7D82BB82B38F7E82BB00E619E0DDDFFE
:1403CA00959A949A08950E94E304D7DF949A00E911E0D3DF2C
:1403DE000E94E304D0DF949A00E213E0CCDF0E94E304C9DFF4
:1403F200949A00E911E0C5DF0E94E304C2DF949A089582B321
:140406008F7E82BB00E213E0BADF949A00E213E0B6DF0E94F0
:14041A00E304B3DF949A00E911E0AFDF0E94E304ACDF949A7D
:14042E000895002711270895A4D1B901A8012997CE0109E0D1
:1404420010E05A934A939A938A93BBD129968BD10895002737
:140456001127089500271127089549D188D12A970024112434
:14046A001F820E822DC1EE89FF898081853239F00081EC8989
:14047E00FD8998D10E94D4041FC1EE24FF244EE251E060E249
:140492000E940005E82FF92F208033243D822C82822D932D9D
:1404A6008835E0E09E0709F477C088E582159305A4F08C81AF
:1404BA009D818534E0E09E0709F4FBC08534E0E09E070CF41C
:1404CE0043C08C819D818335E0E09E0709F4A8C03BC08C8162
:1404E2009D818F36E0E09E0709F458C08FE690E02C803D805B
:1404F60082159305DCF08C819D818336E0E09E0709F486C06B
:14050A008436E0E09E0709F42AC08536E0E09E0709F4CFC02B
:14051E008636E0E09E0709F4CAC08936E0E09E07E1F012C05A
:140532008C819D818337E0E09E0709F498C08537E0E09E07F5
:1405460009F42AC08837E0E09E0709F425C000C0EE89FF89F5
:14055A000081EC89FD8928D10E94D404AFC00E94C2040E9425
:14056E000605822D932D8030E0E09E0764F48E2D9F2D886023
:14058200E82EF92E6DE2822D932D0E941005998788878AE01A
:140596000E94E9044AD139C00E94C2040E940605EE89FF899A
:1405AA008081853751F48AE090E099838883222D332D042F58
:1405BE00152F77D126C0EE89FF8980818F3629F488E00E94CB
:1405D200E9046DD11CC080E10E94E90468D1EE89FF898081E5
:1405E600883599F40E941A050DC0EC2DFD2D0081112798D1C4
:1405FA00EC2DFD2D00838C2D9D2D0196C82ED92E0E941F054A
:14060E0081F70E941A0539C00E94C204208031802A82022D12
:14062200EC89FD89C5D00E94D4044CC00E94C204A080B180F5
:140636006D32A9F40DE2EC89FD89B8D00E94D4040EC0EA2DA3
:14064A00FB2DC895002DEC89FD89AED00E94D4048A2D9B2D78
:14065E000196A82EB92EEA2DFB2DC895002069F72BC00E948B
:14067200C204C080D180CC2031F4DD2021F482ED90E0C82E25
:14068600D92E6D32A1F40DE2EC89FD898FD00E94D4040DC095
:14069A00EC2DFD2D0081EC89FD8986D00E94D4048C2D9D2D3A
:1406AE000196C82ED92E0E941F0581F705C08FE690E0C82EC6
:1406C200D92EE1CF0E940005EE89FF892080222009F0CDCE51
:1406D6000E811F812A9649D024960895A02FB12FE22FF32FCF
:1406EA0001900D920020E1F708953A932A931A930A930895C6
:1406FE006894DA92D12E04C0E894DA92D12ED32617FF02C005
:140712000E94150537FF04C0309520952F5F3F4F09D0D7FED9
:1407260002C00E941505D9900895689401C0E894EA92FA92FA
:14073A008A93EE24FF2480E1000F111FEE1CFF1CE216F306A3
:14074E0018F0E21AF30A03958A95A1F716F40E2D1F2D89919C
:14076200F990E9900895E2E010C0E8E00EC0EE270CC0FA924F
:14077600EA92DA92CA92BA92AA927A936A935A934A93089532
:14078A00E1E049915991E0FD089569917991E1FD0895A990A4
:14079E00B990E2FD0895C990D990E3FD0895E990F9900895A4
:1407B2000A92C8950A923196C895F02DE99109900994AA9370
:1407C600BA93EA93FA930A92AF81B885ED81FE81003001079A
:1407DA0029F001900D9201501040F8CF0990F991E991B99173
:1407EE00A99124960895C7DF402F209047013090480122200E
:1408020011F4332021F04A3011F40DE0F2DF5D9BFECF4CB972
:14081600042F1127B7DF0895822F932F01968E7F800F911FDA
:14082A00082F192F0895A1DFC22ED32E402F512FA297ACA4B5
:14083E00BDA48C2D9D2D8030E0E09E0734F461E00E9410058D
:14085200C82ED92E01C06627222429A28C2F9D2F8196E82E82
:14086600F92E0E94F1040E940B0546DFE02FF12F84EE90E0D8
:14087A000E94F9040E940B0541DFC02ED12ECC2071F7DD20BB
:14088E0061F7662331F00E94F1048DE2E22DF32D80832E2DC1
:1408A2003F2D042F152F1CDFA29661DF089563DFA22EB32E5C
:1408B600C02ED12EA2976AA57BA5222429A24C2F5D2F4F5D15
:1408CA005F4F842F952F0197282E392E482F592F0E942405D6
:1408DE0028DFE02FF12F89E091E00E94F9040E94240521DF8C
:1408F200A02EB12EAA2049F7BB2039F7242F352F0C2D1D2DF6
:14090600EDDEA29630DF089587E590E0202E312E280E391E18
:14091A00E22DF32DC895002D11270270107008952CDF402FCF
:14092E00512F042F152FECDF0030010739F0042F152F0156C4
:1409420010400F5B1F4F02C0042F152F1DDF0895D0DE17DF03
:14095600229722E030E00C2F1D2F0C5F1F4F5CDF402F512F38
:14096A00598348832C813D8104E510E074DD402F512F229696
:14097E0005DF24960895888D998D0296998F888FE82FF92FD9
:140992003297089530926C0020926B0050926E0040926D0011
:1409A60008958E819F8101969F838E83089540906D005090ED
:1409BA006E0020906B0030906C00089582B38F7E82BB00E96F
:1409CE0011E0089590E09983888328853985042F152F089571
:1409E2008E2D9F2D0197282E392EE82EF92E0895E80FF91F3C
:1409F6004080E22DF32D408208958E899F8901969F8B8E8B86
:140A0A000895208031803986288608952A2D3B2D0C2D1D2D9E
:140A1E000895809590958F5F9F4F0895109500950F5F1F4F5E
:140A320008958EE291E0C82ED92E0895EC2DFD2D2080222073
:140A46000895262F372F0A2D1B2D08955990499039902990E4
:140A5A0008952A923A924A925A9208952416350646065706E0
:020A6E000895E9
:00000001FF
